{
  "_format": "hh-sol-artifact-1",
  "contractName": "GuardianRegistry",
  "sourceName": "contracts/GuardianRegistry.sol",
  "abi": [
    {
      "anonymous": false,
      "inputs": [
        {
          "indexed": true,
          "internalType": "address",
          "name": "user",
          "type": "address"
        },
        {
          "indexed": false,
          "internalType": "bytes32",
          "name": "cipherHash",
          "type": "bytes32"
        }
      ],
      "name": "CipherHashSet",
      "type": "event"
    },
    {
      "anonymous": false,
      "inputs": [
        {
          "indexed": true,
          "internalType": "address",
          "name": "user",
          "type": "address"
        },
        {
          "indexed": true,
          "internalType": "bytes32",
          "name": "guardianCIDHash",
          "type": "bytes32"
        },
        {
          "indexed": false,
          "internalType": "bytes32",
          "name": "authValueHash",
          "type": "bytes32"
        }
      ],
      "name": "GuardianAdded",
      "type": "event"
    },
    {
      "anonymous": false,
      "inputs": [
        {
          "indexed": true,
          "internalType": "address",
          "name": "user",
          "type": "address"
        },
        {
          "indexed": true,
          "internalType": "bytes32",
          "name": "guardianCIDHash",
          "type": "bytes32"
        }
      ],
      "name": "GuardianRemoved",
      "type": "event"
    },
    {
      "anonymous": false,
      "inputs": [
        {
          "indexed": true,
          "internalType": "address",
          "name": "user",
          "type": "address"
        },
        {
          "indexed": false,
          "internalType": "uint256",
          "name": "threshold",
          "type": "uint256"
        }
      ],
      "name": "ThresholdUpdated",
      "type": "event"
    },
    {
      "inputs": [
        {
          "internalType": "bytes32",
          "name": "guardianCIDHash",
          "type": "bytes32"
        },
        {
          "internalType": "bytes32",
          "name": "authValueHash",
          "type": "bytes32"
        },
        {
          "internalType": "bytes32",
          "name": "cipherHash",
          "type": "bytes32"
        }
      ],
      "name": "addGuardian",
      "outputs": [],
      "stateMutability": "nonpayable",
      "type": "function"
    },
    {
      "inputs": [
        {
          "internalType": "address",
          "name": "user",
          "type": "address"
        },
        {
          "internalType": "bytes32",
          "name": "guardianCIDHash",
          "type": "bytes32"
        },
        {
          "internalType": "bytes32",
          "name": "authValueHash",
          "type": "bytes32"
        },
        {
          "internalType": "bytes32",
          "name": "cipherHash",
          "type": "bytes32"
        },
        {
          "internalType": "uint256",
          "name": "nonce",
          "type": "uint256"
        },
        {
          "internalType": "uint256",
          "name": "deadline",
          "type": "uint256"
        },
        {
          "internalType": "uint8",
          "name": "v",
          "type": "uint8"
        },
        {
          "internalType": "bytes32",
          "name": "r",
          "type": "bytes32"
        },
        {
          "internalType": "bytes32",
          "name": "s",
          "type": "bytes32"
        }
      ],
      "name": "addGuardianWithSig",
      "outputs": [],
      "stateMutability": "nonpayable",
      "type": "function"
    },
    {
      "inputs": [
        {
          "internalType": "bytes32",
          "name": "authValueHash",
          "type": "bytes32"
        }
      ],
      "name": "getAuthValueOwner",
      "outputs": [
        {
          "internalType": "address",
          "name": "",
          "type": "address"
        }
      ],
      "stateMutability": "view",
      "type": "function"
    },
    {
      "inputs": [
        {
          "internalType": "address",
          "name": "user",
          "type": "address"
        }
      ],
      "name": "getCipherHash",
      "outputs": [
        {
          "internalType": "bytes32",
          "name": "",
          "type": "bytes32"
        }
      ],
      "stateMutability": "view",
      "type": "function"
    },
    {
      "inputs": [
        {
          "internalType": "address",
          "name": "user",
          "type": "address"
        }
      ],
      "name": "getGuardianCIDs",
      "outputs": [
        {
          "internalType": "bytes32[]",
          "name": "",
          "type": "bytes32[]"
        }
      ],
      "stateMutability": "view",
      "type": "function"
    },
    {
      "inputs": [
        {
          "internalType": "address",
          "name": "user",
          "type": "address"
        }
      ],
      "name": "getGuardianConfig",
      "outputs": [
        {
          "internalType": "uint256",
          "name": "threshold",
          "type": "uint256"
        },
        {
          "internalType": "bytes32[]",
          "name": "guardianCIDs",
          "type": "bytes32[]"
        },
        {
          "internalType": "bytes32",
          "name": "cipherHash",
          "type": "bytes32"
        }
      ],
      "stateMutability": "view",
      "type": "function"
    },
    {
      "inputs": [
        {
          "internalType": "address",
          "name": "user",
          "type": "address"
        },
        {
          "internalType": "bytes32",
          "name": "guardianCIDHash",
          "type": "bytes32"
        }
      ],
      "name": "getGuardianEntry",
      "outputs": [
        {
          "internalType": "bytes32",
          "name": "",
          "type": "bytes32"
        }
      ],
      "stateMutability": "view",
      "type": "function"
    },
    {
      "inputs": [
        {
          "internalType": "address",
          "name": "user",
          "type": "address"
        }
      ],
      "name": "getThreshold",
      "outputs": [
        {
          "internalType": "uint256",
          "name": "",
          "type": "uint256"
        }
      ],
      "stateMutability": "view",
      "type": "function"
    },
    {
      "inputs": [
        {
          "internalType": "address",
          "name": "",
          "type": "address"
        }
      ],
      "name": "nonces",
      "outputs": [
        {
          "internalType": "uint256",
          "name": "",
          "type": "uint256"
        }
      ],
      "stateMutability": "view",
      "type": "function"
    },
    {
      "inputs": [
        {
          "internalType": "bytes32",
          "name": "guardianCIDHash",
          "type": "bytes32"
        }
      ],
      "name": "removeGuardian",
      "outputs": [],
      "stateMutability": "nonpayable",
      "type": "function"
    },
    {
      "inputs": [
        {
          "internalType": "address",
          "name": "user",
          "type": "address"
        },
        {
          "internalType": "bytes32",
          "name": "guardianCIDHash",
          "type": "bytes32"
        },
        {
          "internalType": "uint256",
          "name": "nonce",
          "type": "uint256"
        },
        {
          "internalType": "uint256",
          "name": "deadline",
          "type": "uint256"
        },
        {
          "internalType": "uint8",
          "name": "v",
          "type": "uint8"
        },
        {
          "internalType": "bytes32",
          "name": "r",
          "type": "bytes32"
        },
        {
          "internalType": "bytes32",
          "name": "s",
          "type": "bytes32"
        }
      ],
      "name": "removeGuardianWithSig",
      "outputs": [],
      "stateMutability": "nonpayable",
      "type": "function"
    }
  ],
  "bytecode": "0x608060405234801561001057600080fd5b50611e03806100206000396000f3fe608060405234801561001057600080fd5b50600436106100a95760003560e01c80637ecebe00116100715780637ecebe00146101a05780638e26df0f146101d0578063a2c6aff1146101ec578063d9449d1214610208578063e956bb6514610224578063ef530a7514610254576100a9565b80630bb6094a146100ae5780631cf66c12146100e0578063449e800f1461011057806376716bbe146101405780637897716814610170575b600080fd5b6100c860048036038101906100c3919061104d565b610270565b6040516100d79392919061116a565b60405180910390f35b6100fa60048036038101906100f5919061104d565b610325565b60405161010791906111a8565b60405180910390f35b61012a600480360381019061012591906111ef565b610370565b604051610137919061122b565b60405180910390f35b61015a60048036038101906101559190611246565b6103ad565b60405161016791906111a8565b60405180910390f35b61018a6004803603810190610185919061104d565b61040a565b6040516101979190611286565b60405180910390f35b6101ba60048036038101906101b5919061104d565b610455565b6040516101c79190611286565b60405180910390f35b6101ea60048036038101906101e59190611306565b61046d565b005b610206600480360381019061020191906113a8565b61049a565b005b610222600480360381019061021d91906111ef565b6104ab565b005b61023e6004803603810190610239919061104d565b6104b8565b60405161024b91906113fb565b60405180910390f35b61026e6004803603810190610269919061141d565b610551565b005b600060606000806000808673ffffffffffffffffffffffffffffffffffffffff1673ffffffffffffffffffffffffffffffffffffffff168152602001908152602001600020905080600001548160010182600401548180548060200260200160405190810160405280929190818152602001828054801561031057602002820191906000526020600020905b8154815260200190600101908083116102fc575b50505050509150935093509350509193909250565b60008060008373ffffffffffffffffffffffffffffffffffffffff1673ffffffffffffffffffffffffffffffffffffffff168152602001908152602001600020600401549050919050565b60006001600083815260200190815260200160002060009054906101000a900473ffffffffffffffffffffffffffffffffffffffff169050919050565b60008060008473ffffffffffffffffffffffffffffffffffffffff1673ffffffffffffffffffffffffffffffffffffffff168152602001908152602001600020600201600083815260200190815260200160002054905092915050565b60008060008373ffffffffffffffffffffffffffffffffffffffff1673ffffffffffffffffffffffffffffffffffffffff168152602001908152602001600020600001549050919050565b60026020528060005260406000206000915090505481565b6104878761047d89898989610584565b87878787876105df565b61049187876108a4565b50505050505050565b6104a633848484610af3565b505050565b6104b533826108a4565b50565b60606000808373ffffffffffffffffffffffffffffffffffffffff1673ffffffffffffffffffffffffffffffffffffffff16815260200190815260200160002060010180548060200260200160405190810160405280929190818152602001828054801561054557602002820191906000526020600020905b815481526020019060010190808311610531575b50505050509050919050565b61056d896105638b8b8b8b8b8b610e25565b87878787876105df565b61057989898989610af3565b505050505050505050565b60007fa400f0e70d55e122aa5ae7cec68dd62d343c2a2781e04542ec6e741da8deed26858585856040516020016105bf9594939291906114e7565b604051602081830303815290604052805190602001209050949350505050565b600073ffffffffffffffffffffffffffffffffffffffff168773ffffffffffffffffffffffffffffffffffffffff160361064e576040517f08c379a000000000000000000000000000000000000000000000000000000000815260040161064590611597565b60405180910390fd5b600260008873ffffffffffffffffffffffffffffffffffffffff1673ffffffffffffffffffffffffffffffffffffffff1681526020019081526020016000205485146106cf576040517f08c379a00000000000000000000000000000000000000000000000000000000081526004016106c690611603565b60405180910390fd5b6000841461071b578342111561071a576040517f08c379a000000000000000000000000000000000000000000000000000000000815260040161071190611695565b60405180910390fd5b5b6000610725610e86565b8760405160200161073792919061172d565b6040516020818303038152906040528051906020012090506000600182868686604051600081526020016040526040516107749493929190611773565b6020604051602081039080840390855afa158015610796573d6000803e3d6000fd5b505050602060405103519050600073ffffffffffffffffffffffffffffffffffffffff168173ffffffffffffffffffffffffffffffffffffffff161415801561080a57508873ffffffffffffffffffffffffffffffffffffffff168173ffffffffffffffffffffffffffffffffffffffff16145b610849576040517f08c379a00000000000000000000000000000000000000000000000000000000081526004016108409061182a565b60405180910390fd5b6001876108569190611879565b600260008b73ffffffffffffffffffffffffffffffffffffffff1673ffffffffffffffffffffffffffffffffffffffff16815260200190815260200160002081905550505050505050505050565b60008060008473ffffffffffffffffffffffffffffffffffffffff1673ffffffffffffffffffffffffffffffffffffffff1681526020019081526020016000209050600081600301600084815260200190815260200160002054905060008103610943576040517f08c379a000000000000000000000000000000000000000000000000000000000815260040161093a9061191f565b60405180910390fd5b6000600182610952919061193f565b905060006001846001018054905061096a919061193f565b90508082146109e557600084600101828154811061098b5761098a611973565b5b90600052602060002001549050808560010184815481106109af576109ae611973565b5b90600052602060002001819055506001836109ca9190611879565b85600301600083815260200190815260200160002081905550505b836001018054806109f9576109f86119a2565b5b60019003818190600052602060002001600090559055836003016000868152602001908152602001600020600090556000846002016000878152602001908152602001600020549050846002016000878152602001908152602001600020600090556000801b8114610a9c576001600082815260200190815260200160002060006101000a81549073ffffffffffffffffffffffffffffffffffffffff02191690555b610aa68588610f54565b858773ffffffffffffffffffffffffffffffffffffffff167f75cd8d9f01b90fe59e0fecfd8de59d529a5088507db54c294254708d1e982c2560405160405180910390a350505050505050565b6000801b8303610b38576040517f08c379a0000000000000000000000000000000000000000000000000000000008152600401610b2f90611a43565b60405180910390fd5b6000801b8203610b7d576040517f08c379a0000000000000000000000000000000000000000000000000000000008152600401610b7490611ad5565b60405180910390fd5b6000801b8103610bc2576040517f08c379a0000000000000000000000000000000000000000000000000000000008152600401610bb990611b67565b60405180910390fd5b60008060008673ffffffffffffffffffffffffffffffffffffffff1673ffffffffffffffffffffffffffffffffffffffff168152602001908152602001600020905060008160030160008681526020019081526020016000205414610c5c576040517f08c379a0000000000000000000000000000000000000000000000000000000008152600401610c5390611bf9565b60405180910390fd5b6000801b816004015403610cc6578181600401819055508473ffffffffffffffffffffffffffffffffffffffff167f75636b7524fb12ab3000b27811e44668a7191791dd7316fe9b6b6449daabf36883604051610cb991906111a8565b60405180910390a2610d0d565b81816004015414610d0c576040517f08c379a0000000000000000000000000000000000000000000000000000000008152600401610d0390611c8b565b60405180910390fd5b5b806001018490806001815401808255809150506001900390600052602060002001600090919091909150558060010180549050816003016000868152602001908152602001600020819055508281600201600086815260200190815260200160002081905550846001600085815260200190815260200160002060006101000a81548173ffffffffffffffffffffffffffffffffffffffff021916908373ffffffffffffffffffffffffffffffffffffffff160217905550610dcf8186610f54565b838573ffffffffffffffffffffffffffffffffffffffff167fc0f8a21cf3b51f550824358b896669327d4a555631b51c610b93a521ce5062ee85604051610e1691906111a8565b60405180910390a35050505050565b60007fd731c3004d60843ac05ea98e399e1842a26962846f48d9a19d1bdd81d5108b41878787878787604051602001610e649796959493929190611cab565b6040516020818303038152906040528051906020012090509695505050505050565b60007f8b73c3c69bb8fe3d512ecc4cf759cc79239f7b179b0ffacaa9a75d522b39400f6040518060400160405280601081526020017f477561726469616e526567697374727900000000000000000000000000000000815250805190602001206040518060400160405280600181526020017f3100000000000000000000000000000000000000000000000000000000000000815250805190602001204630604051602001610f39959493929190611d1a565b60405160208183030381529060405280519060200120905090565b60008260010180549050905060006001821115610f89576002600183610f7a9190611879565b610f849190611d9c565b610f8b565b815b90508084600001819055508273ffffffffffffffffffffffffffffffffffffffff167fbb0549e0aedb1fcc6a27d802df340bb4bd5dc53b1f97f3736a879345232e6def82604051610fdc9190611286565b60405180910390a250505050565b600080fd5b600073ffffffffffffffffffffffffffffffffffffffff82169050919050565b600061101a82610fef565b9050919050565b61102a8161100f565b811461103557600080fd5b50565b60008135905061104781611021565b92915050565b60006020828403121561106357611062610fea565b5b600061107184828501611038565b91505092915050565b6000819050919050565b61108d8161107a565b82525050565b600081519050919050565b600082825260208201905092915050565b6000819050602082019050919050565b6000819050919050565b6110d2816110bf565b82525050565b60006110e483836110c9565b60208301905092915050565b6000602082019050919050565b600061110882611093565b611112818561109e565b935061111d836110af565b8060005b8381101561114e57815161113588826110d8565b9750611140836110f0565b925050600181019050611121565b5085935050505092915050565b611164816110bf565b82525050565b600060608201905061117f6000830186611084565b818103602083015261119181856110fd565b90506111a0604083018461115b565b949350505050565b60006020820190506111bd600083018461115b565b92915050565b6111cc816110bf565b81146111d757600080fd5b50565b6000813590506111e9816111c3565b92915050565b60006020828403121561120557611204610fea565b5b6000611213848285016111da565b91505092915050565b6112258161100f565b82525050565b6000602082019050611240600083018461121c565b92915050565b6000806040838503121561125d5761125c610fea565b5b600061126b85828601611038565b925050602061127c858286016111da565b9150509250929050565b600060208201905061129b6000830184611084565b92915050565b6112aa8161107a565b81146112b557600080fd5b50565b6000813590506112c7816112a1565b92915050565b600060ff82169050919050565b6112e3816112cd565b81146112ee57600080fd5b50565b600081359050611300816112da565b92915050565b600080600080600080600060e0888a03121561132557611324610fea565b5b60006113338a828b01611038565b97505060206113448a828b016111da565b96505060406113558a828b016112b8565b95505060606113668a828b016112b8565b94505060806113778a828b016112f1565b93505060a06113888a828b016111da565b92505060c06113998a828b016111da565b91505092959891949750929550565b6000806000606084860312156113c1576113c0610fea565b5b60006113cf868287016111da565b93505060206113e0868287016111da565b92505060406113f1868287016111da565b9150509250925092565b6000602082019050818103600083015261141581846110fd565b905092915050565b60008060008060008060008060006101208a8c0312156114405761143f610fea565b5b600061144e8c828d01611038565b995050602061145f8c828d016111da565b98505060406114708c828d016111da565b97505060606114818c828d016111da565b96505060806114928c828d016112b8565b95505060a06114a38c828d016112b8565b94505060c06114b48c828d016112f1565b93505060e06114c58c828d016111da565b9250506101006114d78c828d016111da565b9150509295985092959850929598565b600060a0820190506114fc600083018861115b565b611509602083018761121c565b611516604083018661115b565b6115236060830185611084565b6115306080830184611084565b9695505050505050565b600082825260208201905092915050565b7f477561726469616e52656769737472793a20696e76616c696420757365720000600082015250565b6000611581601e8361153a565b915061158c8261154b565b602082019050919050565b600060208201905081810360008301526115b081611574565b9050919050565b7f477561726469616e52656769737472793a20696e76616c6964206e6f6e636500600082015250565b60006115ed601f8361153a565b91506115f8826115b7565b602082019050919050565b6000602082019050818103600083015261161c816115e0565b9050919050565b7f477561726469616e52656769737472793a207369676e6174757265206578706960008201527f7265640000000000000000000000000000000000000000000000000000000000602082015250565b600061167f60238361153a565b915061168a82611623565b604082019050919050565b600060208201905081810360008301526116ae81611672565b9050919050565b600081905092915050565b7f1901000000000000000000000000000000000000000000000000000000000000600082015250565b60006116f66002836116b5565b9150611701826116c0565b600282019050919050565b6000819050919050565b611727611722826110bf565b61170c565b82525050565b6000611738826116e9565b91506117448285611716565b6020820191506117548284611716565b6020820191508190509392505050565b61176d816112cd565b82525050565b6000608082019050611788600083018761115b565b6117956020830186611764565b6117a2604083018561115b565b6117af606083018461115b565b95945050505050565b7f477561726469616e52656769737472793a20696e76616c6964207369676e617460008201527f7572650000000000000000000000000000000000000000000000000000000000602082015250565b600061181460238361153a565b915061181f826117b8565b604082019050919050565b6000602082019050818103600083015261184381611807565b9050919050565b7f4e487b7100000000000000000000000000000000000000000000000000000000600052601160045260246000fd5b60006118848261107a565b915061188f8361107a565b92508282019050808211156118a7576118a661184a565b5b92915050565b7f477561726469616e52656769737472793a20677561726469616e206d6973736960008201527f6e67000000000000000000000000000000000000000000000000000000000000602082015250565b600061190960228361153a565b9150611914826118ad565b604082019050919050565b60006020820190508181036000830152611938816118fc565b9050919050565b600061194a8261107a565b91506119558361107a565b925082820390508181111561196d5761196c61184a565b5b92915050565b7f4e487b7100000000000000000000000000000000000000000000000000000000600052603260045260246000fd5b7f4e487b7100000000000000000000000000000000000000000000000000000000600052603160045260246000fd5b7f477561726469616e52656769737472793a20696e76616c69642043494420686160008201527f7368000000000000000000000000000000000000000000000000000000000000602082015250565b6000611a2d60228361153a565b9150611a38826119d1565b604082019050919050565b60006020820190508181036000830152611a5c81611a20565b9050919050565b7f477561726469616e52656769737472793a20696e76616c69642061757468206860008201527f6173680000000000000000000000000000000000000000000000000000000000602082015250565b6000611abf60238361153a565b9150611aca82611a63565b604082019050919050565b60006020820190508181036000830152611aee81611ab2565b9050919050565b7f477561726469616e52656769737472793a20696e76616c69642063697068657260008201527f2068617368000000000000000000000000000000000000000000000000000000602082015250565b6000611b5160258361153a565b9150611b5c82611af5565b604082019050919050565b60006020820190508181036000830152611b8081611b44565b9050919050565b7f477561726469616e52656769737472793a20677561726469616e20657869737460008201527f7300000000000000000000000000000000000000000000000000000000000000602082015250565b6000611be360218361153a565b9150611bee82611b87565b604082019050919050565b60006020820190508181036000830152611c1281611bd6565b9050919050565b7f477561726469616e52656769737472793a206369706865722068617368206d6960008201527f736d617463680000000000000000000000000000000000000000000000000000602082015250565b6000611c7560268361153a565b9150611c8082611c19565b604082019050919050565b60006020820190508181036000830152611ca481611c68565b9050919050565b600060e082019050611cc0600083018a61115b565b611ccd602083018961121c565b611cda604083018861115b565b611ce7606083018761115b565b611cf4608083018661115b565b611d0160a0830185611084565b611d0e60c0830184611084565b98975050505050505050565b600060a082019050611d2f600083018861115b565b611d3c602083018761115b565b611d49604083018661115b565b611d566060830185611084565b611d63608083018461121c565b9695505050505050565b7f4e487b7100000000000000000000000000000000000000000000000000000000600052601260045260246000fd5b6000611da78261107a565b9150611db28361107a565b925082611dc257611dc1611d6d565b5b82820490509291505056fea264697066735822122092a9f093da51d5414d86241bdcec52ff93eef6dbba0ee9c1036bf76990198ce264736f6c63430008180033",
  "linkReferences": {},
  "deployedLinkReferences": {}
}